:0400000017EF0CF0FA
:06136800C58AC5881200D1
:10136F00313233344E52019EA6FED79E961200C5DF
:10137F0086BBEC09F01200C582BBEC09F01200C568
:10138F0080BBEC09F01200C584BBEC09F01200BF62
:10139F00EC09F0B4EC09F0C9501200016E01C0C99C
:1013AF00FFBBEC09F01200016E9EA8FED701C0AD85
:1013BF00FF12000F0EC16E1E0E936EF19E8150E054
:0513CF0009816E12000F
:1013D500CC2F922FB72FAC2FDF2F00003A00003A09
:1013E50000000094869488280EC66E310EC86EC71C
:1013F5009CC78E9E96A1961200056E000E016E0486
:10140500503CEC0AF0010E016E05503CEC0AF0125E
:10141500000A6EC7EC09F0D00ED5EC09F00A50D5DC
:10142500EC09F00950D5EC09F0CBEC09F01200C03D
:101435008EC08AC098C096C090C082C094C292C126
:101445009AC198000EC46E000EC36EC280120009C8
:10145500C001F00AC002F0036A8E0E046E000E058C
:101465006E4CEC0DF001C009F002C00AF003C00B90
:10147500F01200026E01B002D0829201D082820287
:10148500C083FF82848294958E8280829282848238
:101495009483BEFCD78290959E1200026EC7EC091C
:1014A500F0A00ED5EC09F00250D5EC09F0C3EC091B
:1014B500F0A10ED5EC09F0CFEC09F0036ECBEC09E9
:1014C500F003501200026EC7EC09F0D00ED5EC09FE
:1014D500F00250D5EC09F0C3EC09F0D10ED5EC09BA
:1014E500F0CFEC09F0036ECBEC09F00350120005C8
:1014F5006EC7EC09F0A00ED5EC09F00550D5EC0946
:10150500F00250D5EC09F0CBEC09F00B0E046EB8E7
:101515000E036E0306D8A004060328FBE10428D8B1
:10152500B41200F7D7000E956E9450F80B946E82A6
:1015350090000E016E020E3CEC0AF0000E016E38B2
:101545000E3CEC0AF0000E016E0C0E3CEC0AF000AD
:101555000E016E010E3CEC0AF01200076E07C00387
:10156500F0D8900336D8900336C250C30B0310C28F
:101575006EC282C2B2FED7C350C4CF03F0046A0361
:10158500C004F0036A0310056E0450066E05C00121
:10159500F006C002F01200000E076E000E066E0E79
:1015A500D0C30E056E500E046E0406D8A0050604C1
:1015B50028FBE10528D8A4F8D7064A072A015006D2
:1015C5005C0750800A036E0250800A0358D8B01297
:1015D50000E7D7016E0104D8A413D080EC0CF04BC2
:1015E5006E4B28D8B407D05E50D8B404D0000E5E38
:1015F5006E4B5012004B28D8A409D0010E5E6E0622
:10160500D00150D8A403D080EC0CF01200FF0E12CC
:1016150000948E949CAC9EAC9CAC8AAC98AC96AC79
:1016250084AC92AC90AB8EAB9CAB9AAB88AB96ABD3
:1016350094AB92AB90B89EB88CB898B896B892B85F
:1016450090810EAF6E9D889E989D8A9E9A1200038A
:10165500500410D8B418D0010E056E04D0D89003EC
:10166500360436052A04AEFAD70350015C0450024D
:1016750058D8A004D00350015E0450025AD89004F3
:10168500320332052EF1D701C001F002C002F0127B
:101695000095EC0AF0E1EC09F01AEC0AF0F4EC091B
:1016A500F06CEC0BF00BEC0BF0010E026E640E7A95
:1016B500EC0AF0000E026E650E7AEC0AF0010E02DD
:1016C5006E660E7AEC0AF0000E026E670E7AEC0A70
:1016D500F01200000E65EC0AF00B6E0B5080090944
:1016E5006E000E0BEC0AF0020E65EC0AF00B6E0BA9
:1016F50050BF0B096E020E0BEC0AF0930E096E0734
:101705000E0BEC0AF0000E65EC0AF00B6E0B507F29
:101715000B096E000E0BEC0AF01200000E066E00AF
:101725000E056E03500410D8B41CD0010E076E04CC
:10173500D0D89003360436072A04AEFAD7D89005D8
:101745003606360350015C04500258D8A005D00374
:1017550050015E0450025A0580D8900432033207C6
:101765002EEDD705C001F006C002F01200020E658D
:10177500EC0AF0426E010E65EC0AF0436E000E6550
:10178500EC0AF0446E42380F0B030B300F4C6E42DF
:10179500500F0B300F4D6E3A0E4E6E43380F0B0F38
:1017A5000B300F4F6E43500F0B300F506E3A0E51EA
:1017B5006E44380F0B0F0B300F526E44500F0B3029
:1017C5000F536E000E546E1200000E016E05503C54
:1017D500EC0AF016D0010E016E03C0F6FF04C0F747
:1017E500FFF86A050EF76403D00800F55005D0F63A
:1017F500CFE9FFF7CFEAFFEF503CEC0AF0034A04CC
:101805002A03C0F6FF04C0F7FFF86A050EF7640364
:10181500D00800F55005D0F6CFE9FFF7CFEAFFEF86
:10182500500009D8B41200D6D7D50EF66E130EF7B0
:101835006E000EF86E00EE78F010EE13F00900F56C
:10184500CFEEFFE550E150FAE16F0EF66E130EF79D
:101855006E000EF86E00EE58F010EE07F00900F578
:10186500CFEEFFE550E150FAE100EE60F0180EEE24
:101875006AE806FDE100EE3BF01D0EEE6AE806FDA6
:10188500E1000EF86E00014DEF10F0000E066E023D
:10189500AE06D0016C021ED8B0022A010E066E04F7
:1018A500AE04D0036C041ED8B0042A03500410D82B
:1018B500B418D0010E056E04D0D890033604360551
:1018C5002A04AEFAD70350015C04500258D8A0048C
:1018D500D00350015E0450025AD8900432033205F9
:1018E5002EF1D70650D8B404D0016C021ED8B00230
:1018F5002A01C001F002C002F01200819A818C8198
:101905008E81B202D0010E120081B402D0040E12F3
:101915000081B602D0070E120081B802D00A0E125D
:1019250000818A819C818E81B202D0020E120081D3
:10193500B402D0050E120081B602D0080E12008145
:10194500B802D00B0E1200818A818C819E819E8106
:10195500B202D0030E120081B402D0060E1200812D
:10196500B602D0090E120081B802D00C0E1200FF8B
:101975000E1200000E066E04AE06D0036C041ED8CF
:10198500B0042A010E066E02AE06D0016C021ED806
:10199500B0022A010E061A000E086E000E076E032D
:1019A500500410D8B41CD0010E056E04D0D8900395
:1019B500360436052A04AEFAD7D89007360836031A
:1019C50050015C04500258D8A005D00350015E04B4
:1019D50050025A0780D89004320332052EEDD706FF
:1019E50050D8B404D0076C081ED8B0082A07C00127
:1019F500F008C002F01200000E1E6EC60E1F6E42E9
:101A05000E206EC00E0F6E7F0E106E440E116E040A
:101A15000EB0EC0AF001C009F002C00AF02AEC0A87
:101A2500F009C00CF00AC00DF00BC00EF0DAEC0E98
:101A3500F00CC01BF00DC01CF00EC01DF04DEC0FDE
:101A4500F01BC02AF01CC02BF01DC02CF001EC0EC1
:101A5500F02AC039F02BC03AF039C001F03AC00283
:101A6500F0000E046E0A0E036E90EC0BF001503080
:101A75000F556E39C001F03AC002F0000E046E0A2F
:101A85000E036E2AEC0BF00150300F566E000E5708
:101A95006E12000450D8B405D0015002100310D8BE
:101AA500A40CD0000E016E000E026E000E036E1225
:101AB50000042AD890033202320132000E011406C6
:101AC5006E000E0214076EFE0E0314086E06500714
:101AD500100810D8B40CD0ECD7042A010E0126004A
:101AE5000E0222000E0322D8900332023201320088
:101AF5000E0114066E000E0214076EFF0E03140885
:101B05006E065007100810D8B406D0E6D70406D8DC
:101B15009001360236033602BE03D0020E0460F68B
:101B2500D704A0029ED8900432045003120550D861
:101B3500A4038E01C001F002C002F003C003F0123D
:101B45000004500A0DF35050EC0AF0DBEC09F004E8
:101B5500500A0DF32850EC0AF0DBEC09F03A0EDBE5
:101B6500EC09F004500A0DF350020F50EC0AF0DBBB
:101B7500EC09F004500A0DF350030F50EC0AF0DBAA
:101B8500EC09F03A0EDBEC09F004500A0DF35004B1
:101B95000F50EC0AF0DBEC09F004500A0DF3500588
:101BA5000F50EC0AF0DBEC09F0200EDBEC09F00439
:101BB500500A0DF350060F50EC0AF0DBEC09F00467
:101BC500500A0DF350070F50EC0AF0DBEC09F0203A
:101BD5000EDBEC09F004500A0DF350080F50EC0A27
:101BE500F0DBEC09F004500A0DF350090F50EC0A34
:101BF500F0DBEC09F00A0EDBEC09F012002CC02E2C
:101C0500F02F6A306A2B342E3601E32F802E5038A0
:101C15006E3850D8A409D0000E2A6E000E2B6E0027
:101C25000E2C6E000E2D6E1200170E2E6E2AC02F72
:101C3500F02BC030F02CC031F02E28326E04D0D8F5
:101C450090313230322F32322EFAD72F50336E2B5D
:101C55008EFF0E2A16FF0E2B16000E2C162A503458
:101C65006E2B50356E2C50366E376A8E0E385E38B8
:101C7500AE0DD03850800A8F0FD8A0CDD7D8903769
:101C850032363235323432383EF9D70DD0170E3868
:101C95006407D0C1D7D8903436353636363736381E
:101CA500063850D8A4F7D73350D8B408D0371E36E5
:101CB5001E351E346C000E35223622372234C02ADA
:101CC500F035C02BF036C02CF037C02DF0120000D7
:101CD5000E1C6E000E1B6E000E1A6E000E196E2085
:101CE500EE09F00F0EDE6AE806FDE25CD0F00E03A9
:101CF5006E2F0E046E800E056EE7EC0BF0C00E0421
:101D05006E1B50300FFFEC09F0C10E046E2E0EFF56
:101D1500EC09F01BC006F0C00EC7EC0FF03AD01C62
:101D2500BE41D01C5003E11B04D8A03CD01B06D8F3
:101D3500A01C0638D0000E026E050E016ECEEC0A10
:101D4500F0000EECEC0AF00C0AD8A405D0000E1A2F
:101D55006E010E196E27D04ABE11D04A5004E10A11
:101D65000E495CD8A00BD01CBE06D01C501BE10947
:101D75000E1B5CD8B017D01B4A1C2A14D047501B29
:101D85005C1C50800A086E4850800A0858D8A0F399
:101D9500D709D0010EECEC0AF00B0AD8B4C0D7076E
:101DA5000AD8B4C8D719501A10D8A412009FD70E54
:101DB500C012F0136A146A0D34123601E31380124F
:101DC50050196E1950D8A407D0000E0C6E000E0DD8
:101DD5006E000E0E6E120011C012F0136A146A1016
:101DE50034123601E3138012501A6E1A50D8A40724
:101DF500D0000E0C6E000E0D6E000E0E6E12000061
:101E05000E166E000E176E000E186E1A50890F19F9
:101E15005E0EC01AF011501A1A800E1A160D8EFF9A
:101E25000E0C16FF0E0D16000E0E16108EFF0E0F61
:101E350016FF0E1016000E1116180E156ED89016F8
:101E450036173618360F500C5C10500D5811500EC1
:101E550058D8A007D00F500C5E10500D5A11500ED7
:101E65005A1680D8900C360D360E36152EE7D71635
:101E7500C001F017C002F018C003F019C004F01A31
:101E8500C005F04CEC0DF001C00CF002C00DF003E4
:101E9500C00EF012001DC021F0226A236A1C3421F5
:101EA5003601E322802150246E2450D8A407D000A7
:101EB5000E1B6E000E1C6E000E1D6E120020C02142
:101EC500F0226A236A1F34213601E322802150293A
:101ED5006E2950D8A407D0000E1B6E000E1C6E0094
:101EE5000E1D6E120029507B0F24261DC029F020DF
:101EF50050291A800E29161C8E1F8EFF0E1E16FFE6
:101F05000E1F16000E2016000E256E000E266E0002
:101F15000E276E070E286E1BA006D01E5025261F05
:101F250050262220502722D8901D321C321B32D831
:101F3500901E361F362036282EEED7090E286E1B2A
:101F4500A006D01E5025261F50262220502722D815
:101F5500901D321C321B32D890273226322532286A
:101F65002EEED725C001F026C002F027C003F024CD
:101F7500C004F029C005F04CEC0DF001C01BF002C7
:101F8500C01CF003C01DF01200076E0750020F04BD
:101F95006E06500A0DF35050EC0AF0FFEC09F007FD
:101FA50050030F046E06500A0DF32850EC0AF0FF9B
:101FB500EC09F00750040F046E3A0EFFEC09F00728
:101FC50050050F046E06500A0DF350020F50EC0A2F
:101FD500F0FFEC09F00750060F046E06500A0DF3EA
:101FE50050030F50EC0AF0FFEC09F00750070F04FF
:101FF5006E3A0EFFEC09F00750080F046E06500A02
:102005000DF350040F50EC0AF0FFEC09F0075009EE
:102015000F046E06500A0DF350050F50EC0AF0FF41
:10202500EC09F007500A0F046E200EFFEC09F007CB
:10203500500B0F046E06500A0DF350060F50EC0AB4
:10204500F0FFEC09F007500C0F046E06500A0DF373
:1020550050070F50EC0AF0FFEC09F007500D0F0484
:102065006E200EFFEC09F007500E0F046E06500AA5
:102075000DF350080F50EC0AF0FFEC09F007500F74
:102085000F046E06500A0DF350090F50EC0AF0FFCD
:10209500EC09F012004BEC0BF0F90E036E2F0E0459
:1020A5006EC90E056EE7EC0BF0B9EC0BF0FEEC0C0F
:1020B500F04F0EE8EC10F0FD0E036E2E0E046E8050
:1020C5000E056EE7EC0BF0B9EC0BF0FEEC0CF04CEA
:1020D5000E036E046AC00E056EE7EC0BF0550E0399
:1020E5006E046ACE0E056EE7EC0BF05FD0455058D6
:1020F5000FD96EDA6ADF50E8EC10F0C90E046E47AE
:102105000EFFEC09F0CA0E046E4550580FD96EDA71
:102115006ADF50FFEC09F0454A462A46BECCD74651
:102125005004E1060E455CD8A0C6D7000E466E05E4
:102135000E1DD04550580FD96EDA6ADF50E8EC1005
:10214500F0C90E046E470EFFEC09F0CA0E046E4589
:1021550050580FD96EDA6ADF50FFEC09F04506D802
:10216500A0460646AEA8D7000E466E000E456EA3E5
:10217500D7430EE8EC10F0F60E036E2F0E046EC971
:102185000E056EE7EC0BF097D7000E026E020E01FE
:102195006ECEEC0AF0500EE8EC10F0DDEC11F0001C
:1021A50009D8A489D7E4EC13F086D7010EECEC0A24
:1021B500F0010AD8B49BD7030AD8B4BBD7010AD813
:1021C500B4D7D7080AD8B4E0D776D7076E4CC00283
:1021D500F047500A0DF3507AEC0AF04DC002F04773
:1021E500500A0DF3287AEC0AF04FC002F047500A66
:1021F5000DF350020F7AEC0AF050C002F047500A76
:102205000DF350030F7AEC0AF052C002F047500A62
:102215000DF350040F7AEC0AF053C002F047500A50
:102225000DF350050F7AEC0AF0430E0718D8A411E8
:10223500D0200E026E47500A0DF350060F7AEC0AB5
:10224500F0430E026E47500A0DF350070F7AEC0A61
:10225500F08ED04F0E0718D8A411D04F0E026E473E
:10226500500A0DF350060F7AEC0AF04E0E026E4737
:10227500500A0DF350070F7AEC0AF079D0500E078B
:1022850018D8A411D0500E026E47500A0DF350060F
:102295000F7AEC0AF0410E026E47500A0DF3500713
:1022A5000F7AEC0AF064D0560E0718D8A411D05650
:1022B5000E026E47500A0DF350060F7AEC0AF04CE9
:1022C5000E026E47500A0DF350070F7AEC0AF04FD5
:1022D500D0440E0718D8A411D0440E026E47500AF8
:1022E5000DF350060F7AEC0AF04C0E026E47500AB9
:1022F5000DF350070F7AEC0AF03AD0580E0718D8AC
:10230500A411D0430E026E47500A0DF350060F7A02
:10231500EC0AF04C0E026E47500A0DF350070F7A87
:10232500EC0AF025D0570E0718D8A411D0430E0299
:102335006E47500A0DF350060F7AEC0AF0500E0264
:102345006E47500A0DF350070F7AEC0AF010D0478C
:102355000E026E47500A0DF350060F7AEC0AF0078D
:10236500C002F047500A0DF350070F7AEC0AF055FA
:10237500C002F047500A0DF350080F7AEC0AF056E8
:10238500C002F047500A0DF350090F7AEC0AF0012C
:102395000E4724016E000E4820026E000E046E0AE0
:1023A5000E036E48EC0CF001C047F002C048F0493E
:1023B5004A4A2A1200000E016E010E3CEC0AF02E6C
:1023C5000E036E2F0E046E810E056EE7EC0BF0000A
:1023D5000E086E000E096E000E0A6E000E0B6E00E2
:1023E5000E166E050E156E000E1C6E000E1B6E0091
:1023F5000E0D6E000E0C6ECBD0010EECEC0AF01437
:102405006E130E0F6E880E0E6E0E06D8A00F060EFA
:1024150028FBE10F28D8A4F8D71CBE06D01C5049CC
:10242500E1040E1B5CD8B045D00C50066E0D50076C
:102435006E0C4A0D2A07BE06D0980E065C3A0E07AA
:1024450058D8B007D01B50C00F046E5F0EFFEC09C3
:10245500F028D01B50C00F046E200EFFEC09F021B0
:10246500D0FC0E036E2F0E046E1B50C00F056EE7D9
:10247500EC0BF01B50080FD96EDA6A010EDF6E1BEC
:102485004A1C2A85D0FC0E036E2F0E046E1B50C00D
:102495000F056EE7EC0BF01B50080FD96EDA6ADFFB
:1024A5006AEED714500B0AD8B4DBD7070AD8B4EABA
:1024B500D76ED0000E136E000E126E000E1A6E004F
:1024C5000E196E1950080FD96EDA6A1950640F503B
:1024D500EC0AF0076EDE500718D8A402D0124A1392
:1024E5002A194A1A2A1ABEEDD71A5004E1040E1900
:1024F5005CD8A0E7D7040E12181310D8A407D00093
:102505000E016E010E3CEC0AF0000E1200000E1CCE
:102515006E000E1B6E000E016E010E3CEC0AF0E81B
:102525000E036E2F0E046EC40E056EE7EC0BF00065
:102535000E186E000E176EC30E116E500E106E1033
:1025450006D8A011061028FBE11128D8A4F8D71742
:102555004A182A18BEF0D7185004E10A0E175CD89D
:10256500A0EAD7000E016E010E3CEC0AF01F0E0327
:102575006E2F0E046E800E056EE7EC0BF08F0E04C9
:102585006E1506D8A016061550300FFFEC09F0158C
:10259500501610D8A431D7000E016E010E3CEC0A7E
:1025A500F0010E1200000E146E08D1000E016E012E
:1025B5000E3CEC0AF0000E1B6E000E106E000E11A4
:1025C5006E000E126E000E136E000E0A6E000E0BDC
:1025D5006E000E0C6E000E0D6E2CD0680E036E2F65
:1025E5000E046E800E056EE7EC0BF01AD01B50C082
:1025F5000F046E2A0EFFEC09F01B50100FD96EDA8E
:102605006A010EDF6E1B2A15D01B50C00F046E2AFF
:102615000EFFEC09F01B50100FD96EDA6ADF6AF273
:10262500D7010EECEC0AF00B0AD8B4E0D7070AD8AC
:10263500B4EBD7030E1B64D1D7000E016E010E3C1F
:10264500EC0AF0000E1B6E2CD04C0E036E2F0E0400
:102655006E820E056EE7EC0BF01AD01B50C00F040E
:102665006E2A0EFFEC09F01B500A0FD96EDA6A01CB
:102675000EDF6E1B2A15D01B50C00F046E2A0EFFED
:10268500EC09F01B500A0FD96EDA6ADF6AF2D7013E
:102695000EECEC0AF00B0AD8B4E0D7070AD8B4EB75
:1026A500D7030E1B64D1D7000E1B6E000E186E00EB
:1026B5000E176E1750100FD96EDA6A17500A0FE110
:1026C5006EE26ADE50E618D8B41B2A174A182A1893
:1026D500BEF0D7185004E1040E175CD8A0EAD70065
:1026E5000E016E010E3CEC0AF0040E1B18D8A43B3B
:1026F500D0000E1A6E000E196E1950100FD96EDA31
:102705006ADF50026E1950640F7AEC0AF0194A1A02
:102715002A1ABEF2D71A5004E1040E195CD8A0ECAF
:10272500D7000E016E010E3CEC0AF0DB0E036E2E97
:102735000E046E800E056EE7EC0BF0D60E036E2FC1
:102745000E046EC10E056EE7EC0BF0000E026E0A6C
:102755000E016ECEEC0AF0000E016E010E3CEC0A85
:10276500F0010E146E10D0EC0E036E2E0E046E806A
:102775000E056EE7EC0BF05A0E036E2F0E046EC1BC
:102785000E056EE7EC0BF0000E166E000E156EC30F
:102795000E0F6E500E0E6E0E06D8A00F060E28FBFD
:1027A500E10F28D8A4F8D7154A162A16BEF0D71671
:1027B5005004E10A0E155CD8A0EAD71450D8A4122B
:1027C50000F4D620EE78F010EE24F0090EDBCFE30E
:1027D500FFE806FCE2000E356E000E346E000E3387
:1027E5006E000E326E000E2F6E000E2E6E71D132FF
:1027F500503310D8A406D0800E046E2A0EFFEC09C3
:10280500F005D0C00E046E2A0EFFEC09F03450021C
:102815000DF350240FD96EDA6ADECF03F0DDCF0455
:10282500F0820E056EE7EC0BF03450020DF3CF226B
:10283500F0020E22262250240FD96EDA6ADECF036B
:10284500F0DDCF04F0C20E056EE7EC0BF038D100D9
:102855000E026E050E016ECEEC0AF0000EECEC0ACF
:10286500F00B0AD8B4A4D0BED0560EE8EC10F00098
:102875000E016E010E3CEC0AF04ABE08D04A500328
:10288500E14904D8A003D06AEC0EF008D00E0E037F
:102895006E2F0E046E800E056EE7EC0BF0000E0237
:1028A5006E0A0E016ECEEC0AF0000E016E010E3CB2
:1028B500EC0AF00ED1440EE8EC10F0000E016E01AA
:1028C5000E3CEC0AF0A00E036E2F0E046E820E0570
:1028D5006EE7EC0BF0C20E036E2F0E046EC30E05F1
:1028E5006EE7EC0BF0000E026E050E016ECEEC0AE3
:1028F500F0000E316E000E306E0BD00D0EDBEC09C4
:10290500F030C004F031C005F0A3EC0DF0304A31D1
:102915002A4950305C3150800A226E4A50800A2282
:1029250058D8B008D031BEE9D7315004E10A0E308D
:102935005CD8A0E3D7000E016E010E3CEC0AF0C88E
:10294500D0580EE8EC10F0000E486E000E476E00F1
:102955000E4A6E000E496E000E016E010E3CEC0A29
:10296500F0840E036E2F0E046E800E056EE7EC0BE1
:10297500F0000E026E0A0E016ECEEC0AF0000E019A
:102985006E010E3CEC0AF0A4D0570EE8EC10F0D521
:10299500EC12F09ED0000E016E010E3CEC0AF070B8
:1029A500EC15F0000E016E010E3CEC0AF091D034EE
:1029B500503224226E35503320236E2350000AD81E
:1029C500A487D02250000AD8B44FD7010AD8B472D0
:1029D500D7030AD8B4B5D7010AD8B4D6D7070AD8C9
:1029E500B4D9D776D035BE74D0355003E13404D888
:1029F500A06FD0000E016E010E3CEC0AF03206D835
:102A0500A0330633AE65D03406D8A03506000E33A4
:102A15006E000E53D0000E026E050E016ECEEC0A4E
:102A2500F0000EECEC0AF00C0AD8A42BD0000E2F07
:102A35006E010E2E6E000E016E010E3CEC0AF0C901
:102A45000E046E470EFFEC09F0050E45184610D82A
:102A5500B404D045504610D8A40AD0CA0E046E4519
:102A650050580FD96EDA6ADF50FFEC09F031D0CA41
:102A75000E046E4550570FD96EDA6ADF50FFEC0928
:102A8500F027D035BE06D0355023E1030E345CD88F
:102A9500B01FD0000E016E010E3CEC0AF0324A3335
:102AA5002A33BE16D0335004E1020E325CD8A01092
:102AB500D0344A352A000E336E010E326E09D0012C
:102AC5000EECEC0AF00B0AD8B4C2D6070AD8B4A2A9
:102AD500D72E502F10D8A412008AD6000E016E01F1
:102AE5000E3CEC0AF03D0E036E2F0E046E810E05B2
:102AF5006EE7EC0BF0000E65EC0AF0196E195080CC
:102B050009096E000E0BEC0AF0000E1D6E000E1C7E
:102B15006E000E1F6E000E1E6E000E216E000E2042
:102B25006E000E1B6E000E1A6E000E0E6E000E0D60
:102B35006E20EE82F010EE0FF0080EDBCFE3FFE81B
:102B450006FCE2000ED5D01CC001F01DC002F0004D
:102B55000E046E0A0E036EBCEC0CF001500F6E1CD9
:102B6500C001F01DC002F0000E046E0A0E036E488F
:102B7500EC0CF00150106E1EC001F01FC002F000F9
:102B85000E046E0A0E036EBCEC0CF00150126E1EA4
:102B9500C001F01FC002F0000E046E0A0E036E485D
:102BA500EC0CF00150136E20C001F021C002F000C2
:102BB5000E046E0A0E036EBCEC0CF00150156E206F
:102BC500C001F021C002F0000E046E0A0E036E482B
:102BD500EC0CF00150166EC00E046E0F50300FFF56
:102BE500EC09F0C10E046E1050300FFFEC09F0C275
:102BF5000E046E1150FFEC09F0C30E046E12503036
:102C05000FFFEC09F0C40E046E1350300FFFEC09F2
:102C1500F0C50E046E1450FFEC09F0C60E046E15D7
:102C250050300FFFEC09F0C70E046E1650300FFF41
:102C3500EC09F00D500B6E0E500C6E0D4A0E2A214C
:102C45000E0B5C4E0E0C58D8A022D09AD0C00E04A4
:102C55006E200EFFEC09F0C10E046E200EFFEC098C
:102C6500F08FD0C30E046E200EFFEC09F0C40E04E5
:102C75006E200EFFEC09F084D0C60E046E200EFF08
:102C8500EC09F0C70E046E200EFFEC09F079D01A9E
:102C9500C00BF01BC00CF00C50000AD8A471D00B6F
:102CA50050000AD8B4D3D7010AD8B4DBD7030AD861
:102CB500B4E3D766D0010E1A24016E000E1B200264
:102CC5006E000E046E030E036E48EC0CF001C01A84
:102CD500F002C01BF05ED0000E026E050E016ECE36
:102CE500EC0AF0000EECEC0AF00C0AD8A436D00180
:102CF5000E186E4FD0010E1C24016E000E1D200211
:102D05006E000E046E180E036E48EC0CF001C01C2C
:102D1500F002C01DF03ED0010E1E24016E000E1FF4
:102D250020026E000E046E3C0E036E48EC0CF001A2
:102D3500C01EF002C01FF02DD0010E2024016E0030
:102D45000E2120026E000E046E3C0E036E48EC0C44
:102D5500F001C020F002C021F01CD01AC00BF01BFE
:102D6500C00CF00C50000AD8A414D00B50000AD89F
:102D7500B4C1D7010AD8B4CFD7030AD8B4DDD7096F
:102D8500D0010EECEC0AF00B0AD8B494D7070AD898
:102D9500B4A2D71850D8B4D7D6020E65EC0AF03FC6
:102DA5006E010E65EC0AF0406E000E65EC0AF0410E
:102DB5006E1CC001F01DC002F0000E046E0A0E0369
:102DC5006EBCEC0CF0013AF00E01163F50CF0B0132
:102DD50010096E020E0BEC0AF01CC001F01DC002BA
:102DE500F0000E046E0A0E036E48EC0CF03F50F036
:102DF5000B0110096E020E0BEC0AF01EC001F01F4C
:102E0500C002F0000E046E0A0E036EBCEC0CF0015D
:102E15003AF00E011640500F0B0110096E010E0B12
:102E2500EC0AF01EC001F01FC002F0000E046E0A8D
:102E35000E036E48EC0CF04050F00B0110096E01CA
:102E45000E0BEC0AF020C001F021C002F0000E04C8
:102E55006E0A0E036EBCEC0CF0013AF00E01164141
:102E6500500F0B0110096E000E0BEC0AF020C0018B
:102E7500F021C002F0000E046E0A0E036E48EC0C41
:102E8500F04150F00B0110096E000E0BEC0AF0003A
:102E95000E65EC0AF0196E19507F0B096E000E0BCA
:102EA500EC0AF0000E016E010E3CEC0AF0760E0302
:102EB5006E2F0E046E810E056EE7EC0BF0000E0210
:102EC5006E050E016ECEEC0AF0000E016E010E3C91
:102ED500EC0AF012000050415353574F524420530F
:102EE500544F5245442100505744204E4F54204DD5
:102EF50041544348494E470054494D452020202020
:102F050045564E5420205350004E4F204C4F4753AA
:102F150020544F205052494E5400415454454D5071
:102F25005453204C4546543A00454E544552205082
:102F3500415353574F524400454E544552204E4538
:102F4500572054494D450052452D454E5445522074
:102F55005057442100504C532052452D454E544561
:102F6500522100454E544552204E45572050574456
:102F75000054494D45205550444154454421004C89
:102F85004F475320434C45415245442100444F5738
:102F95004E4C4F4144204C4F475300444F574E4CE5
:102FA5004F4144494E47004348414E4745205057FD
:102FB5004400434C454152204C4F4753004C4F472A
:102FC500532E2E2E2E2E0056494557204C4F475333
:102FD5000053554343455353210053455420544909
:102FE5004D45004641494C454421004C4F47533A15
:0A2FF500004320004F4E002A0000A8
:00000001FF
